{
  "contractName": "StudentRecord",
  "abi": [
    {
      "inputs": [],
      "stateMutability": "nonpayable",
      "type": "constructor"
    },
    {
      "anonymous": false,
      "inputs": [
        {
          "indexed": true,
          "internalType": "address",
          "name": "paidBy",
          "type": "address"
        },
        {
          "indexed": false,
          "internalType": "uint256",
          "name": "paidOfRollNo",
          "type": "uint256"
        },
        {
          "indexed": false,
          "internalType": "uint256",
          "name": "amount",
          "type": "uint256"
        }
      ],
      "name": "FeesPaid",
      "type": "event"
    },
    {
      "anonymous": false,
      "inputs": [
        {
          "indexed": true,
          "internalType": "uint256",
          "name": "_rollno",
          "type": "uint256"
        },
        {
          "indexed": false,
          "internalType": "string",
          "name": "_name",
          "type": "string"
        },
        {
          "indexed": false,
          "internalType": "string",
          "name": "_class",
          "type": "string"
        }
      ],
      "name": "StudentAdded",
      "type": "event"
    },
    {
      "inputs": [],
      "name": "principle",
      "outputs": [
        {
          "internalType": "address",
          "name": "",
          "type": "address"
        }
      ],
      "stateMutability": "view",
      "type": "function"
    },
    {
      "inputs": [
        {
          "internalType": "string",
          "name": "_name",
          "type": "string"
        },
        {
          "internalType": "string",
          "name": "_class",
          "type": "string"
        }
      ],
      "name": "addStrudent",
      "outputs": [],
      "stateMutability": "nonpayable",
      "type": "function"
    },
    {
      "inputs": [
        {
          "internalType": "uint256",
          "name": "_rollNo",
          "type": "uint256"
        }
      ],
      "name": "showStudentName",
      "outputs": [
        {
          "internalType": "string",
          "name": "",
          "type": "string"
        }
      ],
      "stateMutability": "view",
      "type": "function"
    },
    {
      "inputs": [
        {
          "internalType": "uint256",
          "name": "_rollNo",
          "type": "uint256"
        }
      ],
      "name": "payFees",
      "outputs": [],
      "stateMutability": "payable",
      "type": "function"
    }
  ],
  "bytecode": "0x6080604052600060015534801561001557600080fd5b50336000806101000a81548173ffffffffffffffffffffffffffffffffffffffff021916908373ffffffffffffffffffffffffffffffffffffffff160217905550610822806100656000396000f3fe60806040526004361061003f5760003560e01c8063016a4284146100445780633084d735146100855780634807aeae146100b357806366ad35a314610212575b600080fd5b34801561005057600080fd5b506100596102c6565b604051808273ffffffffffffffffffffffffffffffffffffffff16815260200191505060405180910390f35b6100b16004803603602081101561009b57600080fd5b81019080803590602001909291905050506102ea565b005b3480156100bf57600080fd5b50610210600480360360408110156100d657600080fd5b81019080803590602001906401000000008111156100f357600080fd5b82018360208201111561010557600080fd5b8035906020019184600183028401116401000000008311171561012757600080fd5b91908080601f016020809104026020016040519081016040528093929190818152602001838380828437600081840152601f19601f8201169050808301925050505050505091929192908035906020019064010000000081111561018a57600080fd5b82018360208201111561019c57600080fd5b803590602001918460018302840111640100000000831117156101be57600080fd5b91908080601f016020809104026020016040519081016040528093929190818152602001838380828437600081840152601f19601f8201169050808301925050505050505091929192905050506103a3565b005b34801561021e57600080fd5b5061024b6004803603602081101561023557600080fd5b8101908080359060200190929190505050610665565b6040518080602001828103825283818151815260200191508051906020019080838360005b8381101561028b578082015181840152602081019050610270565b50505050905090810190601f1680156102b85780820380516001836020036101000a031916815260200191505b509250505060405180910390f35b60008054906101000a900473ffffffffffffffffffffffffffffffffffffffff1681565b670de0b6b3a7640000341161034a576040517f08c379a00000000000000000000000000000000000000000000000000000000081526004018080602001828103825260248152602001806107c96024913960400191505060405180910390fd5b3373ffffffffffffffffffffffffffffffffffffffff167f2d96c281d628079f8df74b1a34cd0c7d97ac06251263316585d5071cf1c03e8b8234604051808381526020018281526020019250505060405180910390a250565b60008054906101000a900473ffffffffffffffffffffffffffffffffffffffff1673ffffffffffffffffffffffffffffffffffffffff163373ffffffffffffffffffffffffffffffffffffffff1614610464576040517f08c379a00000000000000000000000000000000000000000000000000000000081526004018080602001828103825260198152602001807f596f7520617265206e6f7420746865207072696e6369706c650000000000000081525060200191505060405180910390fd5b6001806000828254019250508190555060405180606001604052806001548152602001838152602001828152506002600060015481526020019081526020016000206000820151816000015560208201518160010190805190602001906104cc92919061071d565b5060408201518160020190805190602001906104e992919061071d565b509050506001547f8f2389bb456b93c3e9fe508739c041611b37c490e217f5aa157162a700ec4df76002600060015481526020019081526020016000206001016002600060015481526020019081526020016000206002016040518080602001806020018381038352858181546001816001161561010002031660029004815260200191508054600181600116156101000203166002900480156105ce5780601f106105a3576101008083540402835291602001916105ce565b820191906000526020600020905b8154815290600101906020018083116105b157829003601f168201915b50508381038252848181546001816001161561010002031660029004815260200191508054600181600116156101000203166002900480156106515780601f1061062657610100808354040283529160200191610651565b820191906000526020600020905b81548152906001019060200180831161063457829003601f168201915b505094505050505060405180910390a25050565b6060600260008381526020019081526020016000206001018054600181600116156101000203166002900480601f0160208091040260200160405190810160405280929190818152602001828054600181600116156101000203166002900480156107115780601f106106e657610100808354040283529160200191610711565b820191906000526020600020905b8154815290600101906020018083116106f457829003601f168201915b50505050509050919050565b828054600181600116156101000203166002900490600052602060002090601f016020900481019282610753576000855561079a565b82601f1061076c57805160ff191683800117855561079a565b8280016001018555821561079a579182015b8281111561079957825182559160200191906001019061077e565b5b5090506107a791906107ab565b5090565b5b808211156107c45760008160009055506001016107ac565b509056fe46656573206e65656420746f2062652067726561746572207468616e2031206574686572a264697066735822122086c79704368cfa443d68d0f5ed1f94645cfea88f984f81e031e277ebc4e8ed3464736f6c63430007060033",
  "immutableReferences": {},
  "source": "pragma solidity ^0.7.1;\n\ncontract StudentRecord{\n    struct Student{\n        uint rollno;\n        string name;\n        string class;\n    }\n    address public principle;\n    uint counter=0;\n    mapping(uint=>Student) list;\n    modifier onlyPrinciple{\n        require(msg.sender==principle,\"You are not the principle\");\n        _;\n    }\n    modifier costs{\n        require(msg.value>1 ether,\"Fees need to be greater than 1 ether\");\n        _;\n    }\n    event StudentAdded(uint indexed _rollno,string _name,string _class);\n    event FeesPaid(address indexed paidBy,uint paidOfRollNo,uint amount);\n    constructor(){\n        principle=msg.sender;\n    }\n    function addStrudent(string memory _name,string memory _class) public onlyPrinciple{\n        counter+=1;\n        list[counter]=Student(counter,_name,_class);\n        emit StudentAdded(counter,list[counter].name,list[counter].class);\n    }\n    function showStudentName(uint _rollNo) public view returns(string memory){\n        return list[_rollNo].name;\n    }\n    function payFees(uint _rollNo) public payable costs{\n        emit FeesPaid(msg.sender,_rollNo,msg.value);\n    }\n}",
  "sourcePath": "D:/Projects/Solidity_upskill/Student_record_contract/contracts/StudentRecord.sol",
  "compiler": {
    "name": "solc",
    "version": "0.7.6+commit.7338295f.Emscripten.clang"
  },
  "schemaVersion": "3.3.3",
  "updatedAt": "2021-02-09T09:42:37.240Z",
  "devdoc": {
    "kind": "dev",
    "methods": {},
    "version": 1
  },
  "userdoc": {
    "kind": "user",
    "methods": {},
    "version": 1
  }
}